:0400000007EF00F016
:0A0008007D8201ED08F079EF0BF0A6
:1010000000000600FACF77F0FBCF78F0D9CF79F067
:10101000DACF7AF0F3CF7BF0F4CF7CF0F2A813EFC5
:1010200008F015EF08F01EEF08F0F2A21AEF08F032
:101030001CEF08F01EEF08F0E2EC0BF0F0A623EF37
:1010400008F025EF08F02EEF08F0F0A02AEF08F0E6
:101050002CEF08F02EEF08F0E0EC0BF0F0A833EFE7
:1010600008F035EF08F03EEF08F0F0A23AEF08F094
:101070003CEF08F03EEF08F0DEEC0BF0F2A643EF99
:1010800008F045EF08F060EF08F0F2A04AEF08F032
:101090004CEF08F060EF08F081A851EF08F053EF33
:1010A00008F060EF08F04A04D8A459EF08F05BEFAD
:1010B00008F060EF08F0000E4A6E000EA7EC0AF090
:1010C000F2A665EF08F067EF08F082EF08F0F2A0F3
:1010D0006CEF08F06EEF08F082EF08F081B873EF64
:1010E00008F075EF08F082EF08F04A50D8A47BEFC3
:1010F00008F07DEF08F082EF08F0010E4A6E010E55
:10110000A7EC0AF0F2A687EF08F089EF08F0A4EF49
:1011100008F0F2A08EEF08F090EF08F0A4EF08F0CE
:1011200081AA95EF08F097EF08F0A4EF08F04904C2
:10113000D8A49DEF08F09FEF08F0A4EF08F0000E90
:10114000496E000E66EC0AF0F2A6A9EF08F0ABEFCC
:1011500008F0C6EF08F0F2A0B0EF08F0B2EF08F028
:10116000C6EF08F081BAB7EF08F0B9EF08F0C6EFA4
:1011700008F04950D8A4BFEF08F0C1EF08F0C6EF5F
:1011800008F0010E496E010E66EC0AF0F2A6CBEFF4
:1011900008F0CDEF08F0E8EF08F0F2A0D2EF08F089
:1011A000D4EF08F0E8EF08F081ACD9EF08F0DBEFFE
:1011B00008F0E8EF08F04804D8A4E1EF08F0E3EF06
:1011C00008F0E8EF08F0000E486E000E25EC0AF07B
:1011D000F2A6EDEF08F0EFEF08F00AEF09F0F2A049
:1011E000F4EF08F0F6EF08F00AEF09F081BCFBEF2E
:1011F00008F0FDEF08F00AEF09F04850D8A403EF1B
:1012000009F005EF09F00AEF09F0010E486E010E32
:1012100025EC0AF0F2A60FEF09F011EF09F02CEF20
:1012200009F0F2A016EF09F018EF09F02CEF09F021
:1012300081AE1DEF09F01FEF09F02CEF09F0470414
:10124000D8A425EF09F027EF09F02CEF09F0000EE4
:10125000476E000EE4EC09F0F2A631EF09F033EF2F
:1012600009F04EEF09F0F2A038EF09F03AEF09F07B
:101270004EEF09F081BE3FEF09F041EF09F04EEF6C
:1012800009F04750D8A447EF09F049EF09F04EEFB5
:1012900009F0010E476E010EE4EC09F07CC0F4FF8A
:1012A0007BC0F3FF7AC0DAFF79C0D9FF78C0FBFFBB
:1012B00077C0FAFF7D921100010E706E6950D8B4AC
:1012C00064EF09F066EF09F076EF09F06950D96E26
:1012D000DA6ADF30E832E832070B6B6E070E6B64B8
:1012E00074EF09F076EF09F0CDEF09F0000E706EA3
:1012F000E2EF09F06950D96EDA6ADF30E832E8329D
:10130000070B6B6E010E6C6E6B2A89EF09F0D8909B
:101310006C366B2E87EF09F06C50FF0A6D6E6950CA
:10132000D96EDA6ADF50070B020DF350150FD96E34
:10133000DA6ADECF6EF0DDCF6FF06EC0D9FF6FC01E
:10134000DAFF6D50DF16E2EF09F06950D96EDA6A04
:10135000DF30E832E832070B6B6E010E6C6E6B2AE1
:10136000B4EF09F0D8906C366B2EB2EF09F06950EB
:10137000D96EDA6ADF50070B020DF350150FD96EE4
:10138000DA6ADECF6DF0DDCF6EF06DC0D9FF6EC0D2
:10139000DAFF6C50DF12E2EF09F06A506B6E6C6A94
:1013A0006C50000AD8B4D7EF09F076EF09F06B5013
:1013B000000AD8B47AEF09F0010AD8B4A5EF09F011
:1013C00076EF09F070501200766EF2907650D8A445
:1013D000ECEF09F0EEEF09F006EF0AF05150521071
:1013E000D8B4F5EF09F0F7EF09F024EF0AF002D8CE
:1013F00004EF0AF00500FA6E5150FD6E5250FE6E79
:10140000F850FF6EFA50120024EF0AF07604D8A4C8
:101410000CEF0AF00EEF0AF024EF0AF04F505010D4
:10142000D8B415EF0AF017EF0AF024EF0AF002D84B
:1014300024EF0AF00500FA6E4F50FD6E5050FE6E1C
:10144000F850FF6EFA5012001200766EF29076504D
:10145000D8A42DEF0AF02FEF0AF047EF0AF055500D
:101460005610D8B436EF0AF038EF0AF065EF0AF0FC
:1014700002D845EF0AF00500FA6E5550FD6E565041
:10148000FE6EF850FF6EFA50120065EF0AF0760417
:10149000D8A44DEF0AF04FEF0AF065EF0AF0535071
:1014A0005410D8B456EF0AF058EF0AF065EF0AF07E
:1014B00002D865EF0AF00500FA6E5350FD6E5450E5
:1014C000FE6EF850FF6EFA5012001200766EF29027
:1014D0007650D8A46EEF0AF070EF0AF088EF0AF0A9
:1014E00059505A10D8B477EF0AF079EF0AF0A6EF06
:1014F0000AF002D886EF0AF00500FA6E5950FD6E28
:101500005A50FE6EF850FF6EFA501200A6EF0AF025
:101510007604D8A48EEF0AF090EF0AF0A6EF0AF056
:1015200057505810D8B497EF0AF099EF0AF0A6EF89
:101530000AF002D8A6EF0AF00500FA6E5750FD6EC9
:101540005850FE6EF850FF6EFA5012001200766E80
:10155000F2907650D8A4AFEF0AF0B1EF0AF0C9EFDD
:101560000AF05D505E10D8B4B8EF0AF0BAEF0AF096
:10157000E7EF0AF002D8C7EF0AF00500FA6E5D50F7
:10158000FD6E5E50FE6EF850FF6EFA501200E7EFEF
:101590000AF07604D8A4CFEF0AF0D1EF0AF0E7EF13
:1015A0000AF05B505C10D8B4D8EF0AF0DAEF0AF01A
:1015B000E7EF0AF002D8E7EF0AF00500FA6E5B5099
:1015C000FD6E5C50FE6EF850FF6EFA501200120075
:1015D0007150D8A4EEEF0AF0F0EF0AF0F2EF0AF043
:1015E0001CEF0BF067C073F07150D96EDA6ADF50F0
:1015F0000F0B726E73507218F80B7218736E715075
:10160000D96EDA6ADF38070B726E7246724672461E
:1016100073507218C70B7218736E739C7150D96E29
:10162000DA6ADFAE02D0738E01D0739E730E696EDC
:10163000010E6A6E5CEC09F012007150D8A423EF21
:101640000BF025EF0BF027EF0BF051EF0BF066C01E
:1016500073F07150D96EDA6ADF500F0B726E7350EF
:101660007218F80B7218736E7150D96EDA6ADF381F
:10167000070B726E72467246724673507218C70B31
:101680007218736E739C7150D96EDA6ADFAE02D035
:10169000738E01D0739E730E696E000E6A6E5CECE1
:1016A00009F01200323A030B131B232B333B800F3C
:1016B000810F820F830F840F890F8A0F8B0F8C0F7E
:1016C0008D0F920F930F940F950F960FAE179017E3
:1016D00079019A177C177101A417861769015417AD
:1016E0002C176101020A121A222A01010101433357
:1016F000A3D3A40EF66E160EF76E000EF86E00EE73
:1017000001F010EE4EF00900F5CFEEFFE550E1508C
:10171000FAE100EE4FF01A0EEE6AE806FDE17D9068
:101720007D92000EF86E0001DCEF0BF04D0E716E35
:10173000E8EC0AF0060E756E130E746EAE0EE82E0F
:10174000FED7742EFCD7752EFAD74E0E716E1DEC97
:101750000BF012004E0E716EE8EC0AF0060E756E7C
:10176000130E746EAE0EE82EFED7742EFCD7752EB7
:10177000FAD74D0E716E1DEC0BF012004B0E716E10
:10178000E8EC0AF012004D0E716E1DEC0BF0120029
:101790004B0E716E1DEC0BF012004C0E716EE8ECEE
:1017A0000AF012004E0E716E1DEC0BF012004C0E82
:1017B000716E1DEC0BF0120007EF00F0F0921200BA
:0817C000F0901200F2921200F9
:020000040030CA
:0E000000FF02091EFF8181FF0FC00FE00F40BD
:00000001FF
